:020000040800F2
:1000000000500020A5030008F5030008F5030008D0
:10001000F5030008F5030008F503000800000000E0
:10002000000000000000000000000000F5030008D0
:10003000F503000800000000F5030008F5030008C0
:10004000F5030008F5030008F5030008F5030008B0
:10005000F5030008F5030008F5030008F5030008A0
:10006000F5030008F5030008F5030008F503000890
:10007000F5030008F5030008F5030008F503000880
:10008000F5030008F5030008F5030008F503000870
:10009000F5030008F5030008F5030008F503000860
:1000A000F5030008F5030008F5030008F503000850
:1000B000F5030008F5030008F5030008F503000840
:1000C000F5030008F5030008F5030008F503000830
:1000D000F5030008F5030008F5030008F503000820
:1000E000F5030008F503000800000000F503000810
:1000F000F5030008F5030008F5030008F503000800
:10010000F5030008F5030008F5030008F5030008EF
:10011000F5030008F5030008F5030008F5030008DF
:10012000F5030008F5030008F5030008F5030008CF
:1001300010B5054C237833B9044B13B10448AFF321
:1001400000800123237010BD040000200000000087
:10015000F803000808B5034B1BB103490348AFF38C
:10016000008008BD0000000008000020F80300081F
:1001700070B50F4B0F4DAB42A3EB050607D0002423
:10018000B61055F8043B01349847A642F9D800F060
:1001900033F9094D094B5E1BAB424FEAA60606D068
:1001A000002455F8043B01349847A642F9D870BDA5
:1001B00010040008100400081004000818040008C7
:1001C000704700BF704700BF024B13B1024800F0F8
:1001D00005B8704700000000E9010008002301464F
:1001E0001A46184600F014B838B5074D074C2C1BBA
:1001F000A41005D0013C55F8043D9847002CF9D1D6
:10020000BDE8384000F0FEB81C04000818040008DF
:100210002DE9F8431B4D0646286898460F4691463F
:10022000FFF7CEFF184B1C681CB3286865681F2DAC
:1002300022DC4EB96B1C0235636044F82570FFF771
:10024000C1FF0020BDE8F883012304EB8501C1F85C
:100250008890D4F88821AB401A43022EC4F8882134
:10026000C1F80881E6D1D4F88C211A43C4F88C2156
:10027000E0E7064C1C60D8E7FFF7A4FF4FF0FF3023
:10028000E0E700BF0000002024000020280000203C
:1002900080B500AF00F030F800F00CF8044BDB68DC
:1002A000034A83F02003D36000F06EF800BFF5E747
:1002B0000008014080B400AF0D4B9B690C4A43F02D
:1002C000040393610B4BDB680A4A23F02003D360DD
:1002D000084B1B68074A23F460031360054B1B6837
:1002E000044A43F48013136000BFBD4680BC7047CE
:1002F000001002400008014080B400AF204B1B6892
:100300001F4A23F0050313601D4B1B681C4A43F072
:10031000020313601B4B5B681A4A23F49D3323F4DA
:1003200080735360174B5B68164A43F4701343F4B1
:1003300080635360134B1B68124A43F08073136051
:1003400000BF104B1B6823F00073002BF9D00D4B3E
:100350005B680C4A23F0010353600A4B5B68094A4F
:1003600043F00203536000BF064B5B6803F00C03CD
:10037000082BF9D100BF00BFBD4680BC704700BF4D
:10038000002002400010024080B400AF0448A0F1F9
:1003900001000028FBD100BF00BFBD4680BC7047F4
:1003A000C7816C000D488546AFF300800C480D49AD
:1003B0000D4A002302E0D458C4500433C4188C42C0
:1003C000F9D30A4A0A4C002301E013600432A24226
:1003D000FBD3FFF7CDFEFFF75BFFFEE700500020E9
:1003E00000000020040000201C040008040000207D
:1003F000B8010020FEE70000F8B500BFF8BC08BC5B
:100400009E467047F8B500BFF8BC08BC9E467047D2
:08041000C901000855010008B4
:0404180031010008A6
:04041C00200000209C
:04000005080003A547
:00000001FF
